:020000040800F2
:10000000001200201D0F0008F9040008FB0400087E
:10001000FF040008030500080705000800000000B1
:100020000000000000000000000000000B050008B8
:100030000D050008000000000F050008110500086C
:10004000370F0008370F0008370F0008370F000878
:10005000370F0008370F0008370F0008370F000868
:10006000370F0008370F0008370F0008370F000858
:10007000370F0008370F0008370F0008370F000848
:10008000370F0008370F0008370F0008370F000838
:10009000370F0008370F0008370F0008370F000828
:1000A000370F0008370F0008370F0008370F000818
:1000B000370F0008D70C0008370F0008370F00086B
:1000C000370F0008370F0008370F0008370F0008F8
:1000D000370F0008930E0008370F0008370F00088D
:1000E000370F0008370F0008370F0008370F0008D8
:1000F000370F0008370F0008370F0008370F0008C8
:10010000370F0008370F0008370F0008370F0008B7
:10011000370F0008370F0008370F0008370F0008A7
:10012000370F0008370F0008370F0008370F000897
:1001300000F002F800F03AF80AA090E8000C8244BF
:100140008344AAF10107DA4501D100F02FF8AFF29C
:10015000090EBAE80F0013F0010F18BFFB1A43F0A5
:10016000010318472441000044410000103A24BF15
:1001700078C878C1FAD8520724BF30C830C144BF0C
:1001800004680C607047000000230024002500264E
:10019000103A28BF78C1FBD8520728BF30C148BFEA
:1001A0000B6070471FB51FBD10B510BD03F008FBF5
:1001B0001146FFF7F7FF00F047F903F026FB03B401
:1001C000FFF7F2FF03BC00F009FE000010B5B348D2
:1001D0000068401CB149086008460068142822DD08
:1001E00000200860AE480088401CAD4908800846E1
:1001F00000883C2817DB00200880AA480088401CA3
:10020000A8490880084600883C280CDB00200880AC
:10021000A5480088401CA449088008460088182882
:1002200001DB00200880A14800889D490988884298
:100230001AD09E4800884FF6FF71884203D1401EB5
:100240009A49088010E096480088984908809848A4
:1002500000880B2803D10A209549088002E00B2072
:100260009349088092490880904800883C2853DAD6
:100270008D4800880A2190FBF1F0C4B222468D49D6
:100280008D4803F05BFA884800880A2190FBF1F260
:1002900001FB1200C4B222468649884803F04EFA98
:1002A000834802788349864803F048FA7D480088ED
:1002B0000A2190FBF1F0C4B222467E49814803F046
:1002C0003DFA784800880A2190FBF1F201FB120008
:1002D000C4B2224677497C4803F030FA7448027869
:1002E00074497A4803F02AFA704800880A2190FB82
:1002F000F1F0C4B222466F49754803F01FFA6B480B
:1003000000880A2190FBF1F201FB1200C4B22246E0
:100310006849704803F012FA00F048FA10BD7CB545
:10032000052414256C486449086502200A210B46FF
:100330002A46CDE9001021465F4802F00EFB5D49D8
:100340005D4802F07FFB133463485C490865022076
:100350000A210B462A46CDE900102146574802F0F3
:10036000FCFA5449554802F06DFB13345A4854497D
:10037000086502200A2103462A46CDE900102146DD
:100380004F4802F0EAFA4B494D4802F05BFB0B3450
:1003900051484C49086502200A210B462A46CDE9FE
:1003A00000102146474802F0D8FA4249454802F079
:1003B00049FB133448484449086502200A210B468A
:1003C0002A46CDE9001021463F4802F0C6FA3949D5
:1003D0003E4802F037FB13343F483C490865022091
:1003E0000A2103462A46CDE900102146374802F08B
:1003F000B4FA3049354802F025FB0B34364834490D
:1004000008650220052105F10A020B46CDE900101E
:1004100021462F4802F0A1FA26492D4802F012FB8E
:100420000D342D482B4908650220052105F10A02EB
:100430000B46CDE900102146264802F08EFA1D49F0
:10044000244802F0FFFA7CBD00F058FC00F0C0FC2C
:1004500000F050F941F61F414FF4F57000F00EFC2A
:1004600000F036FB00F0E1F91CA20021084600F084
:100470000DFBFFF754FF10E01D48007801280CD158
:1004800000201B490870FFF7A1FE1A48006808B950
:10049000012000E0002017490860EDE7040000207B
:1004A0000E0000200C0000200A0000201000002098
:1004B00008000020E8020020480000209C000020E6
:1004C000F00000204401002098010020EC010020F1
:1004D0004002002094020020310C00082D3E3E32E4
:1004E0003032302D30392D32363C3C2D00000000AA
:1004F0000000002094812142704700BFFEE700BF4A
:10050000FEE700BFFEE700BFFEE770477047704799
:10051000704700000CB50020019000906C48006806
:1005200040F480306A49086000BF6948006800F400
:10053000003000900198401C0190009818B9019873
:10054000B0F5A06FF1D16248006800F4003010B13E
:100550000120009001E0002000900098012843D184
:100560005C48006840F010005A490860084600687E
:1005700020F0030008600846006840F002000860B0
:1005800053484068524948600846406848600846F9
:10059000406840F4806048600846406820F47C1061
:1005A00048600846406840F4E81048600846006823
:1005B00040F08070086000BF4548006800F000709F
:1005C0000028F9D04248406820F0030040494860C4
:1005D0000846406840F00200486000BF3C48406860
:1005E00000F00C000828F9D10CBD10B5FFF792FF00
:1005F00010BD10B53648006840F00100344908606D
:100600000846406834490840314948600846006857
:10061000324908402E4908600846006820F48020CE
:1006200008600846406820F4FE0048604FF41F0050
:100630008860FFF7DAFF4FF000602949086010BDBD
:1006400010B5002100200022214B5B6803F00C0153
:1006500021B1042906D0082928D107E0214B224CDA
:10066000236027E01F4B204C236023E0184B5B687E
:1006700003F47010164B5B6803F48032022303EB23
:10068000904022B9194B4343174C23600DE0104BA7
:100690005B6803F4003323B1144B4343124C2360D3
:1006A00003E0104B4343104C236003E00D4B0E4C12
:1006B000236000BF00BF064B5B68C3F303130C4C01
:1006C000E15C094B1B68CB40074C236010BD000068
:1006D00000100240002002400000FFF8FFFFF6FE7D
:1006E00008ED00E000127A001400002000093D002F
:1006F0001800002008B50121482000F0B9FF202093
:10070000ADF8000010208DF8030003208DF80200E2
:100710006946094800F0F0FC2021074800F099FDE7
:100720002020ADF800006946044800F0E5FC2021D7
:10073000024800F08EFD08BD000C01400018014089
:1007400070B504460E4626B10821FE4800F081FD32
:1007500003E00821FB4800F07EFD4021F94800F04D
:100760007AFD002517E00121F74800F074FD04F040
:10077000800020B10221F44800F06BFD03E002216B
:10078000F14800F068FD0121EF4800F062FD6006CD
:10079000040E681CC5B2082DE5DB4021E94800F0D5
:1007A00058FD0821E74800F054FD70BD70B50024E5
:1007B0001CE004F1B001C8B20021FFF7C1FF002125
:1007C0000846FFF7BDFF00211020FFF7B9FF002505
:1007D00008E0DE4901EBC501085D0121FFF7B0FF2C
:1007E000681CC5B2802DF4DB601CC4B2082CE0DBB1
:1007F00070BD10B500218D20FFF7A2FF002114204D
:10080000FFF79EFF0021AF20FFF79AFF10BD10B544
:1008100000218D20FFF794FF00211020FFF790FFAB
:100820000021AE20FFF78CFF10BD70B500240CE056
:10083000002506E00020C54901EBC5010855681CEC
:10084000C5B2802DF6DB601CC4B2082CF0DBFFF7CC
:10085000ADFF70BDF0B5144600267F2801DC3F29AE
:1008600000DDF0BD0B46CF1701EB5777FF10C7F146
:100870000707FAB2CF1701EB5777FF10A1EBC707B5
:10088000FDB2C5F107070123BB40DEB24CB1AF4B4F
:1008900003EBC0039B5C3343AC4F07EBC007BB5477
:1008A00008E0AA4B03EBC0039B5CB343A74F07EBE5
:1008B000C007BB5400BFD4E770B5024600257F2AAD
:1008C00001DC3F2902DD4FF0FF3070BD0846CE1736
:1008D00001EB5676F610C6F10706F3B2CE1701EB20
:1008E0005676F610A1EBC606F4B2C4F10706012055
:1008F000B040C5B2954800EBC200C05C284000285B
:1009000001DD0120E1E70020DFE72DE9F0470646A1
:100910000F4690469946DDF820A034460CE03D464F
:1009200006E0524629462046FFF794FF681CC5B2F0
:100930004D45F6DD601CC4B24445F0DDFFF736FFDF
:10094000BDE8F0872DE9F04F80460C4615461E465F
:10095000A346A5F12000C5B200273EE00C2E07D12A
:1009600005EB45007A4901EB800010F8079004E0A0
:10097000784800EB051010F807904FF0000A26E0C9
:1009800009F0800028B121464046099AFFF762FF2E
:1009900009E0099808B9012000E00020024621463C
:1009A0004046FFF757FF4FEA49604FEA1069601C65
:1009B000C4B2A4EB0B00B04205D15C4608F10100C3
:1009C00000F0FF0806E00AF1010000F0FF0ABAF1AA
:1009D000080FD5DB00BF781CC7B2B742BEDBBDE84D
:1009E000F08F10B50246012000E050430B1EA1F12C
:1009F0000104E1B2F9D110BD2DE9FF4F81B00746E6
:100A000091461E460E9D4FF0000A002439E0301B2F
:100A1000401EC1B20A20FFF7E4FFB9FBF0F00A2143
:100A2000B0FBF1F201FB1208BAF1000F16D1701EF3
:100A3000A04213DDB8F1000F0ED10120AB4605EB4B
:100A4000DB71491001FB04710090C8B22B462022D3
:100A50000299FFF777FF12E04FF0010A0120AB4641
:100A600005EBDB71491001FB04710090C8B208F17D
:100A70003001CAB22B460299FFF764FF00BF601C29
:100A8000C4B2B442C3DB05B0BDE8F08FF8B505468B
:100A90000E46144618E07A2D03DD002506F11000FD
:100AA000C6B23A2E04DD002005460646FFF7BDFE1D
:100AB000012000902278102331462846FFF742FF9C
:100AC00005F10800C5B2641C20780028E3D1F8BD08
:100AD00008B501214FF4987000F0CAFD4820ADF828
:100AE000000010208DF8030003208DF802006946F5
:100AF000144800F001FB4821124800F0AAFB032033
:100B0000ADF800006946104800F0F6FA03210E48DF
:100B100000F09FFB4FF40040ADF8000069460E481E
:100B200000F0EAFA4FF400410B4800F092FB4FF45A
:100B30000041094800F08FFB642000F01CF94FF4DD
:100B400000410BE00014014000100140D8060020D5
:100B500024380008983C000800200140464800F076
:100B600078FB0021AE20FFF7EBFD0021D520FFF739
:100B7000E7FD00215020FFF7E3FD0021A820FFF74B
:100B8000DFFD00213F20FFF7DBFD0021D320FFF731
:100B9000D7FD00210846FFF7D3FD00214020FFF7D5
:100BA000CFFD00218D20FFF7CBFD00211420FFF7A2
:100BB000C7FD00212020FFF7C3FD00210220FFF721
:100BC000BFFD0021A120FFF7BBFD0021C020FFF7E2
:100BD000B7FD0021DA20FFF7B3FD00211220FFF757
:100BE000AFFD00218120FFF7ABFD0021EF20FFF7D3
:100BF000A7FD0021D920FFF7A3FD0021F120FFF779
:100C00009FFD0021DB20FFF79BFD00213020FFF737
:100C100097FD0021A420FFF793FD0021A620FFF7F8
:100C20008FFD0021AF20FFF78BFDFFF7FEFD08BD14
:100C300070B504460D461646802C0DDA402D0BDAB1
:100C4000012E04D1E9B2E0B2FFF704FE04E0E9B2FC
:100C5000E0B20022FFF7FEFD70BD30B504460D4640
:100C6000802C06DA402D04DAE9B2E0B2FFF724FE68
:100C700030BD0020FCE70000002001407FB50546A4
:100C80000C460121022000F000FDADF80850ADF83F
:100C900004400020ADF80A00ADF8060001A915488F
:100CA00001F022F801221146124801F094FB1D20A8
:100CB0008DF8000000208DF8010003208DF802005F
:100CC00001208DF80300684600F04DF90121094824
:100CD00001F066FB7FBD10B50121064801F029FE39
:100CE00030B10121034801F035FE012002490870AE
:100CF00010BD0000000400400000002010B56FF09F
:100D0000040000F07AF92E4800682E49B0FBF1F09B
:100D10002D4908700846007800EB4001C1EBC01077
:100D20004FF6FF7101EAC0002849088010BD014656
:100D3000254A12784A434FF0E0235A6100229A6113
:100D40001A46126942F001021A6100BF4FF0E02218
:100D5000106900F001021AB100F48032002AF5D0C7
:100D60004FF0E022126922F001024FF0E0231A61F5
:100D700000229A6170470146144A12884A434FF094
:100D8000E0235A6100229A611A46126942F0010278
:100D90001A6100BF4FF0E022106900F001021AB1A1
:100DA00000F48032002AF5D04FF0E022126922F0E0
:100DB00001024FF0E0231A6100229A61704700009F
:100DC0001400002000127A00280000202A000020D1
:100DD00010B54FF4A06000F0C1F810BD014600BF8F
:100DE000704700BF494A128802F04002002AF9D039
:100DF000C2B2464B1B1D1A80704710B586B0044620
:100E0000012144F2050000F033FC4FF40070ADF80E
:100E1000140003208DF8160018208DF8170005A97E
:100E20003B4800F069F94FF48060ADF814000420ED
:100E30008DF8170005A9364800F05EF925208DF8D9
:100E4000000003208DF801008DF8020001208DF8CC
:100E50000300684600F087F801940020ADF8080010
:100E6000ADF80A00ADF80C00ADF810000C20ADF89C
:100E70000E0001A9254800F0A2FC012240F22551F4
:100E8000224800F034FD0121204800F024FD06B086
:100E900010BD10B540F225511C4800F00DFE10B3F6
:100EA0001A4800F089FDC4B21A48008800F40040D6
:100EB000C8B91848008800F4804060B10A2C03D0FB
:100EC00000201449088020E01248008840F40040C7
:100ED0001049088019E00D2C06D10E48008840F416
:100EE00080400C49088010E00A480088C0F30D00DB
:100EF00009490C5407480088401C064908800846E8
:100F00000088C72801DD0020088010BD003801409E
:100F10000008014030000020D80A0020094880471E
:100F200009480047FEE7FEE7FEE7FEE7FEE7FEE7CB
:100F3000FEE7FEE7FEE7FEE704480549054A064BE3
:100F400070470000F305000831010008000C002084
:100F500000120020000E0020000E00203149014345
:100F6000314A1160704770B5002100230F22C47808
:100F700004B32D4C246804F4E064C4F5E064210A51
:100F8000C1F10403CA40447804FA03F184781440A0
:100F900021430901254C0678A155047804F01F056A
:100FA0000124AC4005786D11AD0005F1E025C5F8D0
:100FB000004109E0047804F01F050124AC401C4DF9
:100FC0000678761145F8264070BD1A4A0A40024359
:100FD000154B1B1F1A60704739B1134A121D126856
:100FE0000243114B1B1D1A6006E00F4A121D1268C6
:100FF00082430D4B1B1D1A607047042808D14FF027
:10100000E021096941F004014FF0E022116107E09D
:101010004FF0E021096921F004014FF0E022116155
:10102000704700000000FA050CED00E000E400E06D
:1010300080E100E080FFFF1F10B50446CC488442E9
:1010400008D10121042000F02DFB0021042000F034
:1010500029FB46E0C748844208D10121082000F05E
:1010600021FB0021082000F01DFB3AE0C248844229
:1010700008D10121102000F015FB0021102000F004
:1010800011FB2EE0BD48844208D10121202000F050
:1010900009FB0021202000F005FB22E0B848844233
:1010A00008D10121402000F0FDFA0021402000F08D
:1010B000F9FA16E0B348844208D10121802000F0FB
:1010C000F1FA0021802000F0EDFA0AE0AE488442F7
:1010D00007D10121801500F0E5FA0021A01500F0EC
:1010E000E1FA10BD10B50121084600F0DBFA00213D
:1010F000012000F0D7FA10BD2DE9F041024600258D
:101100000026002000230024002791F803C00CF0E3
:101110000F0591F803C00CF0100CBCF1000F03D0C8
:1011200091F802C04CEA050591F800C0BCF1000F2F
:1011300031D0146800202BE04FF0010C0CFA00F3C2
:10114000B1F800C00CEA03069E4220D183004FF0A4
:101150000F0C0CFA03F7BC4305FA03FC4CEA040439
:1011600091F803C0BCF1280F06D14FF0010C0CFA26
:1011700000FCC2F814C00AE091F803C0BCF1480FAB
:1011800005D14FF0010C0CFA00FCC2F810C0401C55
:101190000828D1D31460B1F800C0BCF1FF0F34DDD2
:1011A000546800202EE000F1080C4FF0010808FA06
:1011B0000CF3B1F800C00CEA03069E4221D1830073
:1011C0004FF00F0C0CFA03F7BC4305FA03FC4CEA92
:1011D000040491F803C0BCF1280F05D100F1080CFC
:1011E00008FA0CF8C2F8148091F803C0BCF1480F5B
:1011F00007D100F1080C4FF0010808FA0CF8C2F80A
:101200001080401C0828CED35460BDE8F0814FF612
:10121000FF710180022181700421C1707047024674
:10122000002093680B400BB1012000E000207047C4
:101230000146886880B2704702460020D3680B40A0
:101240000BB1012000E0002070470146C86880B261
:10125000704701617047416170470AB1016100E068
:1012600041617047C16070474FF480320A43826128
:101270008161826182698269704702460020434B26
:1012800018684FF68073184040EA021008433F4B3D
:10129000186070473E49C8617047F0B50A460023A0
:1012A00000240021002500F00046B6F1004F02D1D5
:1012B000364EF16901E0354E7168C0F3034583B2E3
:1012C00000F44016B6F5401F08D121F070612F4E92
:1012D000766826F070662D4F7E6012E000F480166E
:1012E000B6F5801F06D1032606FA05F4A14341F0A6
:1012F000706106E0460D360103FA06F6B14341F08F
:10130000706122B1460D360103FA06F6314300F052
:101310000046B6F1004F02D11C4EF16101E01B4EB8
:101320007160F0BD30B500228B071C0F0F2303FA4C
:1013300004F2164B08338C1053F824309343134CAB
:1013400008348D1044F8253023468C1053F824308F
:101350008C07240F00FA04F423430C4C08348D103E
:1013600044F8253030BD0A49DC3108607047000080
:1013700000080140000C0140001001400014014031
:1013800000180140001C0140002001400000014005
:1013900000002042DF48006840F00100DD4908609D
:1013A00008464068DC490840DA4948600846006859
:1013B000DA490840D74908600846006820F48020D0
:1013C00008600846406820F4FE0048604FF41F00A3
:1013D00088607047CF49096821F48031CD4A116097
:1013E0001146096821F480211160B0F5803F03D0D7
:1013F000B0F5802F0ED106E0C649096841F480316E
:10140000C44A116007E0C349096841F4A021C14AF8
:10141000116000E000BF00BF704710B50146002218
:10142000002300204A11012A02D1BA4C236806E0A9
:10143000022A02D1B74C236A01E0B64C636A01F07C
:101440001F02012494401C400CB1012000E0002048
:1014500010BD38B5002000900024002500BF3120C9
:10146000FFF7DBFF05460098401C00900098B0F5A0
:10147000A06F01D0002DF2D03120FFF7CEFF08B1D0
:10148000012400E00024204638BD01460020A14A86
:10149000106820F0F80040EAC10010607047A049D1
:1014A00008607047024600209A4B586820F47C1070
:1014B00042EA01031843974B586070479849086601
:1014C000704701460020934A506820F0030008430B
:1014D000506070478F48406800F00C00704701462C
:1014E00000208C4A506820F0F0000843506070479C
:1014F00001460020874A506820F4E06008435060AD
:10150000704701460020834A506820F4605040EA4A
:10151000C1005060704729B17E4A527A02437D4B28
:101520005A7204E07B4A527A82437A4B5A7270476D
:101530007B49D8310860704701460020754A5068E1
:1015400020F440400843506070470021714A203227
:101550001170704A82F82010012802D004280AD1A4
:1015600004E001216B4A2032117005E00521694A2F
:101570002032117000E000BF00BF70476949086069
:1015800070476449096A0143624A116270476549BC
:1015900044390860704730B5002100220024002340
:1015A0005C4D6D6805F00C0121B1042905D00829B6
:1015B00023D105E05C4D056022E05B4D05601FE036
:1015C000544D6D6805F47012524D6D6805F4803409
:1015D000022505EB92421CB9544D554305600BE0C2
:1015E0004C4D6D6805F400351DB1504D55430560F7
:1015F00002E04D4D5543056002E04B4D056000BFD4
:1016000000BF444D6D6805F0F0010909484D6B5C61
:101610000568DD4045603F4D6D6805F4E061090AED
:10162000434D6B5C4568DD4085603A4D6D6805F45F
:101630006051C90A3E4D6B5C4568DD40C560354D63
:101640006D6805F44041890B3A4D6B5CC568B5FB8C
:10165000F3F5056130BD29B12E4A526902432D4B85
:101660005A6104E02B4A526982432A4B5A617047FF
:1016700029B1284A92690243264B9A6104E0254A1F
:1016800092698243234B9A61704729B1214AD269FA
:101690000243204BDA6104E01E4AD26982431D4BAB
:1016A000DA61704729B11B4AD2680243194BDA60EC
:1016B00004E0184AD2688243164BDA60704729B1B9
:1016C000144A12690243134B1A6104E0114A126969
:1016D0008243104B1A6170471249403908607047C5
:1016E0000F49C86470470B49C87170470948406A80
:1016F00040F0807007494862704701460020054A63
:1017000092680A400AB1012000E0002070470149B8
:1017100088727047001002400000FFF8FFFFF6FEDD
:10172000000042428004424200127A0000093D005B
:10173000320000204200002010B50446FB488442DD
:1017400009D101218803FFF7ADFF00214FF480404C
:10175000FFF7A8FF32E0F648844209D1012148048E
:10176000FFF7ADFF00214FF40030FFF7A8FF25E0A1
:10177000F048844209D101218804FFF7A0FF00212D
:101780004FF48020FFF79BFF18E0EB48844209D11B
:101790000121C804FFF793FF00214FF40020FFF759
:1017A0008EFF0BE0E548844208D101210805FFF7D0
:1017B00086FF00214FF48010FFF781FF10BD2DE957
:1017C000F04786B005460E460024A24600BFA1465B
:1017D0000027B08900B100BF2F462C8A4CF6FF705D
:1017E0000440F08804432C82AC894EF6F310044088
:1017F000B08831890843718908430443AC81AC8ABD
:101800004FF6FF400440B0890443AC8201A8FFF7C3
:10181000C2FEC648874202D1DDF810A001E0DDF823
:101820000CA0A88900F4004040B10AEBCA0000EB0C
:101830000A1031684900B0FBF1F807E00AEBCA0072
:1018400000EB0A1031688900B0FBF1F86420B8FBA6
:10185000F0F004012009642101FB1089A88900F43B
:10186000004040B1322000EBC900B0FBF1F000F0C5
:101870000700044308E0322000EB09106421B0FBAC
:10188000F1F000F00F0004432C8106B0BDE8F087B2
:101890004FF41651016000218180C18001810C212B
:1018A000418100218181704710B502460020108AD5
:1018B0004FF2FF0318400B884C8823438C88234346
:1018C000CC8823431843108210BD00210180418041
:1018D0008180C180704721B1828942F400528281A7
:1018E00004E082894DF6FF731A4082817047F0B59B
:1018F0000346002400260025002040F66A17B9425E
:1019000000D100BF1846C1F3421401F01F060127A1
:1019100007FA06F5012C01D10C3004E0022C01D1AC
:10192000103000E014301AB107682F43076002E05E
:101930000768AF430760F0BD1AB1838A0B43838207
:1019400002E0838A8B4383827047028A4FF6F073EA
:101950001A400282028A0A430282704782894FF249
:10196000FF731A40828182890A438281704721B1C4
:10197000828942F00202828104E082894FF6FD737F
:101980001A4082817047028A4FF6DF731A40028242
:10199000028A0A430282704721B1028A42F48042DD
:1019A000028204E0028A4BF6FF731A4002827047FB
:1019B000C1F308028280704701468888C0F308009E
:1019C0007047818941F0010181817047028BD2B259
:1019D0000283028B42EA012202837047028B02F4E7
:1019E0007F420283028B0A430283704721B1828ABD
:1019F00042F02002828204E0828A4FF6DF731A40AE
:101A00008282704721B1828A42F01002828204E011
:101A1000828A4FF6EF731A408282704721B1828A20
:101A200042F00802828204E0828A4FF6F7731A407D
:101A30008282704721B1828942F40042828103E0B0
:101A40008289C2F30E028281704721B1828A42F4F8
:101A50000062828204E0828A4FF2FF731A4082821F
:101A60007047828A4FF6FB731A408282828A0A4349
:101A70008282704721B1828A42F00202828204E0AF
:101A8000828A4FF6FD731A40828270470246002018
:101A9000B1F5007F00D100BF13880B400BB10120CE
:101AA00000E00020704701F40072B2F5007F00D121
:101AB00000BFCA430280704770B50246002400236D
:101AC0000025002040F66A16B14200D100BFC1F3E4
:101AD000421501F01F03012606FA03F3012D02D17E
:101AE0009689334006E0022D02D1168A334001E088
:101AF000968A33400C12012606FA04F41688344004
:101B000013B10CB1012000E0002070BD10B500221F
:101B1000002340F66A14A14200D100BF0A1201243A
:101B20009440A3B2DC43048010BD000000380140A3
:101B30000044004000480040004C0040005000407D
:101B400010B50446FE48844208D10121C014FFF7B5
:101B5000A9FD0021E014FFF7A5FDC4E0B4F1804F1A
:101B600008D101210846FFF7AAFD00210120FFF757
:101B7000A6FDB8E0F348844208D101210220FFF716
:101B80009EFD00210220FFF79AFDACE0EE48844262
:101B900008D101210420FFF792FD00210420FFF766
:101BA0008EFDA0E0E948844208D101210820FFF71A
:101BB00086FD00210820FFF782FD94E0E44884427E
:101BC00008D101211020FFF77AFD00211020FFF736
:101BD00076FD88E0DF48844208D101212020FFF70C
:101BE0006EFD00212020FFF76AFD7CE0DA48844288
:101BF00008D101214014FFF755FD00216014FFF7C3
:101C000051FD70E0D548844209D10121C804FFF795
:101C100049FD00214FF40020FFF744FD63E0D04868
:101C2000844209D101210805FFF73CFD00214FF452
:101C30008010FFF737FD56E0CA48844209D10121E0
:101C40004805FFF72FFD00214FF40010FFF72AFD94
:101C500049E0C548844208D101214020FFF72FFD0B
:101C600000214020FFF72BFD3DE0C048844208D111
:101C700001218020FFF723FD00218020FFF71FFDB9
:101C800031E0BB48844208D101218015FFF717FDE0
:101C90000021A015FFF713FD25E0B648844209D1C5
:101CA00001210804FFF7FEFC00214FF48030FFF70C
:101CB000F9FC18E0B048844209D101214804FFF73B
:101CC000F1FC00214FF40030FFF7ECFC0BE0AB48D7
:101CD000844208D101218804FFF7E4FC00214FF47D
:101CE0008020FFF7DFFC10BD00220288944B984251
:101CF0000ED0994B98420BD0B0F1804F08D0914B49
:101D0000984205D0904B984202D0904B984204D113
:101D10004FF68F731A404B881A438D4B984207D069
:101D20008C4B984204D04FF6FF431A40CB881A439D
:101D300002808B8883850B880385814B98420BD06A
:101D4000854B984208D08B4B984205D08A4B9842DD
:101D500002D08A4B984201D10B7A038601238382F9
:101D6000704770B5002400220023058C4FF6FE76E4
:101D700035400584028C8388048B4FF68F752C4088
:101D8000B51E2C400D882C43751E2A400D892A4310
:101D90004D882A436A4DA8420BD06F4DA84208D007
:101DA000744DA84205D0744DA84202D0734DA8428C
:101DB00013D14FF6F7752A404D892A434FF6FB752C
:101DC0002A408D882A434FF6FF652B404FF6FF557A
:101DD0002B408D892B43CD892B4383800483CD8871
:101DE0008586028470BD70B5002400220023058C16
:101DF0004FF6EF7635400584028C8388048B48F6D5
:101E0000FF752C404FF6FF452C400D884FF6FF76AE
:101E100006EA05252C434FF6DF752A400D8906EAB0
:101E200005152A434D8806EA05152A43444DA84264
:101E300002D0494DA8421DD14FF67F752A404D89E9
:101E40004FF6FF7606EA05152A434FF6BF752A407E
:101E50008D8806EA05152A434FF6FF352B404FF2D1
:101E6000FF752B408D8906EA85052B43CD8906EA4F
:101E700085052B4383800483CD880587028470BD4C
:101E800070B5002400220023058C4FF6FF66354014
:101E90000584028C8388848B4FF68F752C404FF617
:101EA000FC752C400D882C434FF6FF552A400D89B8
:101EB0004FF6FF7606EA05252A434D8806EA0525F2
:101EC0002A431F4DA84202D0234DA8421DD14FF2F4
:101ED000FF752A404D894FF6FF7606EA05252A430D
:101EE0004FF6FF352A408D8806EA05252A434EF62F
:101EF000FF752B404DF6FF752B408D8906EA0515C1
:101F00002B43CD8906EA05152B4383808483CD8836
:101F10008587028470BD70B5002200230024058CE3
:101F20004EF6FF7635400584038C8488828B48F614
:101F3000FF752A404FF6FF452A400D8820E000003B
:101F4000002C01400004004000080040000C00404C
:101F5000001000400014004000340140004C0140DB
:101F6000005001400054014000180040001C004097
:101F70000020004000400140004401400048014072
:101F80004FF6FF7606EA05252A434DF6FF752B40EE
:101F90000D8906EA05352B434D8806EA05352B43A6
:101FA000FA4DA84202D0FA4DA84208D14BF6FF756F
:101FB0002C408D894FF6FF7606EA85152C438480E8
:101FC0008283CD88A0F84050038470BD828B4FF28D
:101FD000FF331A408283828B4FF6FF7303EA01239B
:101FE0001A4382837047F0B50C4615460022002143
:101FF0000026078C4EF6FF7C07EA0C070784828BCD
:10200000018C4FF6FF7707EA043640F6FF473A4067
:102010004FF6FF7707EA05273A434FF6FF7707EABF
:1020200003373A43D94FB8420ED0D94FB8420BD0FC
:10203000B0F1804F08D0D74FB84205D0D64FB84244
:1020400002D0D64FB84206D14DF6FF77394046F45C
:102050008057394305E047F6FF57394044F480572D
:10206000394382830184F0BD828B4FF6F3731A40AB
:102070008283828B0A4382837047F0B50C461546F3
:10208000002200210026078C4FF6FF6C07EA0C07A0
:102090000784828B018C4FF6FF7707EA04264FF600
:1020A0000C773A404FF6FF7707EA03172F433A437E
:1020B000B64FB8420ED0B64FB8420BD0B0F1804FF9
:1020C00008D0B44FB84205D0B34FB84202D0B34F96
:1020D000B84206D14FF6FF57394046F4807739436E
:1020E00005E04FF2FF57394044F48077394382834B
:1020F0000184F0BD028B4FF2FF331A400283028B42
:102100004FF6FF7303EA01231A4302837047F0B5C9
:102110000C461546002200210026078C4FF6EF7C66
:1021200007EA0C070784028B018C4FF6FF7707EA5A
:10213000041640F6FF473A404FF6FF7707EA0337A9
:102140003A434FF6FF7707EA05273A438F4FB842E5
:102150000ED08F4FB8420BD0B0F1804F08D08D4FCA
:10216000B84205D08C4FB84202D08C4FB84206D14D
:102170004FF6DF77394046F01007394305E04FF658
:102180005F77394044F01007394302830184F0BD82
:10219000028B4FF6F3731A400283028B0A430283C9
:1021A0007047F0B50C46154600220021068C4FF60C
:1021B000FE773E400684028B018C4FF60C7632404F
:1021C0007E1C06EA03162E433243704EB0420ED0F8
:1021D0006F4EB0420BD0B0F1804F08D06D4EB04280
:1021E00005D06D4EB04202D06C4EB04206D14FF6D3
:1021F000FD76314044F00106314305E04FF6F576B7
:10220000314044F00106314302830184F0BD70B5D2
:1022100005460C465D4885420ED05D4885420BD090
:10222000B5F1804F08D05B48854205D05A488542B9
:1022300002D05A48854200D100E000BF208850B942
:102240002389A28861882846FFF7ABFFE1882846EA
:10225000FFF79EFF25E0208804280AD12389A28861
:1022600061882846FFF753FFE1882846FFF742FFC1
:1022700017E0208808280AD12389A2886188284687
:10228000FFF7FBFEE1882846FFF7EEFE09E0238911
:10229000A28861882846FFF7A6FEE1882846FFF756
:1022A00095FE70BD2DE9F04105460C46002601273C
:1022B000608808B9022600E00026A088012801D124
:1022C000022700E001272088A0B92389A28861881D
:1022D0002846FFF766FFE1882846FFF759FF238964
:1022E0003A4631462846FFF712FFE1882846FFF7B5
:1022F00001FF13E02389A28861882846FFF707FFC2
:10230000E1882846FFF7F6FE23893A4631462846FB
:10231000FFF747FFE1882846FFF73AFFBDE8F08165
:102320000A884B881A438B881A43CB881A430B8937
:102330001A434B891A438B891A43A0F844207047EB
:102340004FF6FF71818000210180C18041800172C0
:1023500070470021018041808180C18001814181DD
:102360008181C181704700210180418001218180EC
:102370000021C1800181704700210180418081805E
:10238000C18001814181818170470000002C0140A2
:10239000003401400004004000080040000C0040F0
:1023A00021B1028842F00102028004E002884FF667
:1023B000FE731A400280704731B1B0F8442042F4F5
:1023C0000042A0F8442005E0B0F84420C2F30E0219
:1023D000A0F8442070471AB183890B43838102E03F
:1023E00083898B43838170478182704741EA02036E
:1023F000A0F8483070471AB183890B43838102E00B
:1024000083898B438381704701894FF6F8721140AD
:10241000018170470A46002101894FF68F731940E8
:1024200011430181704730B504460D4629462046C8
:10243000FFF7F0FF208940F00700208130BD2DE933
:10244000F04104460D4616461F46602D06D13B4618
:10245000012231462046FFF75AFE05E03B460122A5
:1024600031462046FFF79DFE29462046FFF7D2FF62
:10247000208940F007002081BDE8F08130B50C468E
:1024800000210189C9B24FF6FF7505EA03251543FE
:1024900025432943018130BD2DE9F04105460E4613
:1024A00017469846002443463A4631462846FFF7E9
:1024B000E5FF2C894FF6F870044044F007044FF60E
:1024C0008F70044044F070042C81BDE8F081F0B5B9
:1024D00004460D4616461F463B46324629462046D0
:1024E000FFF7CCFF208940F480402081F0BD0185BA
:1024F000828270470A46002101884FF68F73194087
:10250000114301807047F0B50C4615461E46002168
:10251000002200230189028B038C4FF6F8773940A3
:1025200021434FF6FC473A4040F201173A434FF639
:10253000DD773B404FF6FF7707EA06172F433B4313
:10254000018102830384F0BD0A460021018B4FF60E
:102550008F7319401143018370470A460021018B94
:1025600048F6FF7319404FF6FF7303EA022319433D
:10257000018370470A460021818B4FF68F73194003
:102580001143818370470A460021818B48F6FF730F
:1025900019404FF6FF7303EA022319438183704702
:1025A00021B1028842F08002028004E002884FF6E6
:1025B0007F731A400280704721B1828842F0040282
:1025C000828004E082884FF6FB731A408280704755
:1025D00021B1828842F00802828004E082884FF6AE
:1025E000F7731A408280704721B1828842F001025D
:1025F000828004E082884FF6FE731A408280704722
:102600000A460021018B4FF6F773194011430183ED
:1026100070470A460021018B4FF2FF7319404FF6B5
:10262000FF7303EA02231943018370470A4600211E
:10263000818B4FF6F77319401143818370470A4627
:102640000021818B4FF2FF7319404FF6FF7303EAAD
:1026500002231943818370470A460021018B4FF6FC
:10266000FB7319401143018370470A460021018B17
:102670004FF6FF3319404FF6FF7303EA0223194365
:10268000018370470A460021818B4FF6FB73194086
:102690001143818370470A460021818B4FF6FF3337
:1026A00019404FF6FF7303EA0223194381837047F1
:1026B0000A460021018B4FF67F73194011430183B5
:1026C00070470A460021018BC1F30E014FF6FF73DC
:1026D00003EA02231943018370470A460021818BD4
:1026E0004FF67F7319401143818370470A460021DA
:1026F000818BC1F30E014FF6FF7303EA02231943E6
:10270000818370470A460021018C4FF6FD73194002
:102710001143018470470A460021018C4FF6F7737C
:1027200019401143018470470A460021018C4FF67D
:10273000DF7319404FF6FF7303EA02131943018454
:1027400070470A460021018C4FF67F7319404FF6FF
:10275000FF7303EA02131943018470470A460021FC
:10276000018C4FF6FF5319404FF6FF7303EA022323
:102770001943018470470A460021018C4FF2FF7310
:1027800019404FF6FF7303EA02231943018470478F
:102790000A460021018C4DF6FF7319404FF6FF7376
:1027A00003EA023319430184704730B50023012442
:1027B0008C40A3B2048C9C430484048C02FA01F57F
:1027C000ADB22C43048430BD30B5002304248C40CA
:1027D000A3B2048C9C430484048C02FA01F5ADB2CC
:1027E0002C43048430BD70B50346002000241846F5
:1027F000183001258D40ACB21D8CA5431D8409B154
:10280000082909D100EB6100056825F07005056015
:102810000568154305600EE00D1FC5F34E052844FD
:10282000056825F4E045056005684FF6FF7606EA81
:1028300002263543056070BD21B1028842F00202D4
:10284000028004E002884FF6FD731A400280704750
:1028500021B1028842F00402028004E002884FF6AF
:10286000FB731A400280704721B1828842F08002D7
:10287000828004E082884FF67F731A40828070471E
:1028800002884FF6F7731A40028002880A430280DA
:10289000704782884FF68F731A40828082880A437D
:1028A0008280704702894FF6F8731A4002810289CC
:1028B0000A430281704702894FF67F731A400281F2
:1028C00002890A430281704781847047818570477D
:1028D000818670470187704781877047A0F8401054
:1028E000704702884FF6FF431A40028002880A436D
:1028F000028070470146888E70470146088F7047F6
:102900000146888F70470146B1F840007047014684
:10291000888C70470146088D704702460020138A54
:102920000B400BB1012000E000207047CA43028237
:10293000704730B50246002000230024158A05EABE
:102940000103958905EA010413B10CB1012000E0EF
:10295000002030BDCA4302827047F0B50446DDE96D
:1029600005650CB90020F0BD21806280A380E6805F
:1029700025720A2060720027678248196081A2814F
:10298000E381022000FB05602082A783A182501909
:10299000E082022000FB053020836683E784C818AC
:1029A000022707FB0500E08350192084022000FB6A
:1029B00005306084A6840027278648192085901951
:1029C000022707FB05006085A385022000FB056048
:1029D000E0850027678761869019032707FB0500BC
:1029E000A086022000FB0530E08626870027A4F899
:1029F0004470C818022707FB0500A0879019032719
:102A000007FB0500E087022000FB0530A4F840002A
:102A1000A4F842600027A4F84E70481987B24620F7
:102A20000753022000FB0620042707FB0500A4F83B
:102A30004800A4F84A30022000FB0560A4F84C00CE
:102A4000012090E7F0B506460A4600230024002541
:102A500011460AB90020F0BD0EB90020FBE70023A3
:102A600018E0002412E000250CE00020C3EBC307AF
:102A700007EB470701EB8707C4EBC40C67447855A5
:102A8000681CC5B2072DF0DB601CC4B20C2CEADB5D
:102A9000581CC3B20C2BE4DB032081F84803072742
:102AA00040F2493047540527401C47540027401C3A
:102AB00047540527401C47540727401C475401270B
:102AC000401C47540027401C475481F85073072787
:102AD00081F85173002781F8527381F853730527E9
:102AE00081F85473002781F855730327C01D47549C
:102AF000002781F85773052781F85873032781F859
:102B00005973052781F85A73002781F85B730327EF
:102B100081F85C73C01D4754002781F85E73052758
:102B200081F85F73032781F86073002781F8617370
:102B3000052781F86273032781F863730027C01D9E
:102B40004754052781F8657381F86673032781F878
:102B50006773002781F86873052781F86973002778
:102B600081F86A73032781F86B73052781F86C730A
:102B7000002781F86D73032781F86E73002781F8B1
:102B80006F73052781F87073032781F8717381F8DB
:102B90007273052781F87373002781F87473032714
:102BA00081F87573052781F8767381F877730327A9
:102BB00081F8787381F87973002781F87A73052793
:102BC00081F87B73002781F87C7381F87D7305277A
:102BD00081F87E73002781F87F73032781F8807363
:102BE000052781F8817381F88273032781F8837345
:102BF000052781F8847381F88573032781F886732C
:102C000081F88773052781F8887381F88973032712
:102C100081F88A73002781F88B73052781F88C73FC
:102C2000032781F88D730220C87109270F720027CE
:102C30004F7202278F720927CF7200270F73022766
:102C40004F73032762204754002781F8637081F88F
:102C50006470032781F86570002781F866700B2780
:102C600081F86770032781F868700027BD204754FA
:102C700081F8BE7081F8BF7081F8C070092781F8B3
:102C8000C170002781F8C27081F8C37004274FF427
:102C90008C704754052781F81971002781F81A7143
:102CA00081F81B71092781F81C71002781F81D71BB
:102CB000022781F81E71032781F87371002781F8BC
:102CC0007471082781F87571002781F8767181F891
:102CD000777181F87871032781F87971002781F87D
:102CE000CE7181F8CF7181F8D07181F8D17105274B
:102CF00081F8D271002781F8D37181F8D47181F8FD
:102D00002972092781F82A72002781F82B7202277D
:102D100081F82C72092781F82D72002781F82E7214
:102D2000022781F82F72002781F8847281F885725A
:102D30000C2781F88672032781F88772002781F8B3
:102D400088720C2781F88972032781F88A7200271C
:102D500081F8DF7281F8E07281F8E17281F8E27245
:102D6000062781F8E372002781F8E47281F8E572A2
:102D7000002081F8F40240F2F5204754401C4754EB
:102D80000427401C47540527401C47540027401C7B
:102D90004754401C475481F89573112781F8967366
:102DA000002781F8977381F89873112781F8997338
:102DB000002781F89A7381F89B7381F8E2731227D8
:102DC00081F8E373002781F8E47381F8E573122733
:102DD00081F8E673002781F8E77381F8E873002033
:102DE00081F8A40140F2A51047540727401C47541E
:102DF0000427401C47540527401C47540027401C0B
:102E00004754401C4754002081F8A800A92047548B
:102E10000C27AA2047540227AB2047540027AC2098
:102E200047540527AD2047540027AE2047540020C3
:102E300081F8FC000527FD2047540027FE20475459
:102E40000427FF2047540527401C47540027401CF7
:102E50004754401C47540120FDE510B501460020B1
:102E600000BF08E0002300EB800401F10A0202EB3E
:102E700044021381401C0728F4DB10BD2DE9FF4FED
:102E800083B004468B46154605EB850104F10A0024
:102E900030F8118005EB850100EB4100B0F802909D
:102EA00005EB850104F10A0000EB4100B0F804A035
:102EB00005EB850104F10A0000EB4100C78800BF63
:102EC0000026CDF804B00698C0EBC00000EB40002F
:102ED000DDF804B00BEB80011098C0EBC000084493
:102EE000405D0290029813287DD2DFE800F00A0EC0
:102EF00038628FBAF1EEEDECEBEAE9E8E7E6E5E4FB
:102F0000E300012007B0BDE8F08F05EB850204F176
:102F10000A0101EB4201098901EB0800012249463F
:102F2000236D984705EB850104F10A0000EB410091
:102F30000089504510DA05EB850104F10A0000EB29
:102F400041000089401C81B205EB850204F10A00B2
:102F500000EB4200018101E00120D3E7EBE305EB48
:102F6000850204F10A0101EB4201098901EB080025
:102F700000224946236D984705EB850104F10A00BC
:102F800000EB41000089504510DA05EB850104F1A2
:102F90000A0000EB41000089401C81B205EB85026C
:102FA00004F10A0000EB4200018101E00120A9E7E1
:102FB000C1E308EB0A0205EB850C04F10A0101EB01
:102FC0004C010989501A01224946236D984705EBA7
:102FD000850104F10A0000EB41000089504512DA36
:102FE00005EB850100E0A4E304F10A0000EB4100D9
:102FF0000089401C81B205EB850204F10A0000EB58
:103000004200018101E001207CE794E308EB0A0221
:1030100005EB850C04F10A0101EB4C010989501AFA
:1030200000224946236D984705EB850104F10A000B
:1030300000EB41000089504510DA05EB850104F1F1
:103040000A0000EB41000089401C81B205EB8502BB
:1030500004F10A0000EB4200018101E0012051E788
:1030600069E305EB850204F10A0000EB42000089E8
:1030700000EB090101224046236D984705EB8501CD
:1030800004F10A0000EB41000089B84210DA05EBB8
:10309000850104F10A0000EB41000089401C81B267
:1030A00005EB850204F10A0000EB420001810EE00D
:1030B000012027E704E3CBE27DE238E2EBE1A7E180
:1030C00059E114E1C7E083E057E02BE000E032E390
:1030D00005EB850204F10A0000EB4200008900EBD9
:1030E000090100224046236D984705EB850104F154
:1030F0000A0000EB41000089B84210DA05EB8501B7
:1031000004F10A0000EB41000089401C81B205EB8C
:10311000850204F10A0000EB4200018101E0012078
:10312000F0E608E309EB070205EB850C04F10A0061
:1031300000EB4C000089111A01224046236D98478C
:1031400005EB850104F10A0000EB41000089B8425B
:1031500010DA05EB850104F10A0000EB410000895B
:10316000401C81B205EB850204F10A0000EB42002D
:10317000018101E00120C5E6DDE209EB070205EB74
:10318000850C04F10A0000EB4C000089111A0022A2
:103190004046236D984705EB850104F10A0000EBDA
:1031A00041000089B84210DA05EB850104F10A00FC
:1031B00000EB41000089401C81B205EB850204F15F
:1031C0000A0000EB4200018101E001209AE6B2E230
:1031D00005EB850104F10A0000EB41000089504530
:1031E00010DA05EB850104F10A0000EB41000089CB
:1031F000401C81B205EB850204F10A0000EB42009D
:10320000018101E001207DE600260EE009EB0601C8
:1032100005EB850C04F10A0202EB4C0212894244D0
:10322000501E0022236D9847761CBE42EEDD00261C
:103230000EE009EB060105EB850C04F10A0202EB36
:103240004C02128902EB08000122236D9847761C7C
:10325000BE42EEDD6FE205EB850104F10A0000EBF2
:1032600041000089504510DA05EB850104F10A00A0
:1032700000EB41000089401C81B205EB850204F19E
:103280000A0000EB4200018101E001203AE605EB73
:10329000850104F10A0000EB41000089012812D0E9
:1032A00000260EE009EB060105EB850C04F10A028D
:1032B00002EB4C0212894244501E0022236D9847B3
:1032C000761CBE42EEDD00260EE009EB060105EBA2
:1032D000850C04F10A0202EB4C02128902EB080091
:1032E0000122236D9847761CBE42EEDD23E205EBFA
:1032F000850104F10A0000EB41000089504510DA15
:1033000005EB850104F10A0000EB41000089401C37
:1033100081B205EB850204F10A0000EB4200018155
:1033200001E00120EEE500260FE009EB060105EBC8
:10333000850C04F10A0202EB4C021289521EA8EB22
:1033400002000022236D9847761CBE42EDDD002668
:103350000EE009EB060105EB850C04F10A0202EB15
:103360004C021289A8EB02000122236D9847761CBB
:10337000BE42EEDDDFE105EB850104F10A0000EB62
:1033800041000089504510DA05EB850104F10A007F
:1033900000EB41000089401C81B205EB850204F17D
:1033A0000A0000EB4200018101E00120AAE505EBE3
:1033B000850104F10A0000EB41000089012813D0C7
:1033C00000260FE009EB060105EB850C04F10A026B
:1033D00002EB4C021289521EA8EB02000022236D60
:1033E0009847761CBE42EDDD00260EE009EB060193
:1033F00005EB850C04F10A0202EB4C021289A8EBE2
:1034000002000122236D9847761CBE42EEDD92E158
:1034100005EB850104F10A0000EB41000089B84288
:1034200010DA05EB850104F10A0000EB4100008988
:10343000401C81B205EB850204F10A0000EB42005A
:10344000018101E001205DE500260EE005EB850C21
:1034500004F10A0202EB4C0212894A44511E08EBA5
:1034600006000022236D9847761C5645EEDB0026A9
:103470000EE005EB850C04F10A0202EB4C02128906
:1034800002EB090108EB06000122236D9847761C28
:103490005645EEDB4FE105EB850104F10A0000EB38
:1034A00041000089B84210DA05EB850104F10A00F9
:1034B00000EB41000089401C81B205EB850204F15C
:1034C0000A0000EB4200018101E001201AE505EB52
:1034D000850104F10A0000EB41000089012812D0A7
:1034E00000260EE005EB850C04F10A0202EB4C020B
:1034F00012894A44511E08EB06000022236D9847AA
:10350000761C5645EEDB00260EE005EB850C04F13B
:103510000A0202EB4C02128902EB090108EB0600D9
:103520000122236D9847761C5645EEDB03E105EB3F
:10353000850104F10A0000EB41000089B84210DA6D
:1035400005EB850104F10A0000EB41000089401CF5
:1035500081B205EB850204F10A0000EB4200018113
:1035600001E00120CEE400260FE005EB850C04F11C
:103570000A0202EB4C021289521EA9EB020108EB6F
:1035800006000022236D9847761C5645EDDB002689
:103590000EE005EB850C04F10A0202EB4C021289E5
:1035A000A9EB020108EB06000122236D9847761C67
:1035B0005645EEDBBFE005EB850104F10A0000EBA8
:1035C00041000089B84210DA05EB850104F10A00D8
:1035D00000EB41000089401C81B205EB850204F13B
:1035E0000A0000EB4200018101E001208AE405EBC2
:1035F000850104F10A0000EB41000089012813D085
:1036000000260FE005EB850C04F10A0202EB4C02E8
:103610001289521EA9EB020108EB06000022236D5D
:103620009847761C5645EDDB00260EE005EB850C31
:1036300004F10A0202EB4C021289A9EB020108EB29
:1036400006000122236D9847761C5645EEDB72E09A
:1036500005EB850104F10A0000EB410000895045AB
:1036600010DA05EB850104F10A0000EB4100008946
:10367000401C81B205EB850204F10A0000EB420018
:10368000018101E001203DE4002613E0032097FBC7
:10369000F0F04844304405EB850204F10A0101EBE7
:1036A00042010090098901EB08000122236D009975
:1036B0009847761C07EBD771B6EB610FE6DD3AE071
:1036C000002614E0032097FBF0F04844304408EB58
:1036D0000A0205EB850C04F10A0101EB4C01009094
:1036E0000989501A0022236D00999847761C07EB30
:1036F000D771B6EB610FE5DD05EB850104F10A003A
:1037000000EB41000089504510DA05EB850104F11A
:103710000A0000EB41000089401C81B205EB8502E4
:1037200004F10A0000EB4200018101E0012014E4F1
:1037300001E0012011E400BF00200EE42DE9F84370
:1037400004460F4615460026B046607AA84202D1CC
:103750000020BDE8F8830CB90020FAE70FB900207B
:10376000F7E74FF0000800260EE00095637A324636
:1037700039462046FFF782FB012803D108F10100FA
:1037800000F0FF08701CC6B2072EEEDBB8F1070F81
:1037900005D12046FFF761FB65720120D9E70020C3
:1037A000D7E710B5002301EB810400F10A0202EB18
:1037B0004402138110BD70477047704770477047CF
:1037C000754600F02BF8AE4605006946534620F0DA
:1037D0000700854618B020B5FDF7AEFBBDE82040D8
:1037E0004FF000064FF000074FF000084FF0000BBD
:1037F00021F00701AC46ACE8C009ACE8C009ACE870
:10380000C009ACE8C0098D46704710B50446AFF357
:1038100000802046BDE81040FCF7D1BC004870474E
:10382000A00B0020000000000000000000000000CD
:10383000000000003F4000000000000000003000D9
:10384000400030004000000009000BC03D000BC0EC
:103850003D00090018C024407FE022403180000074
:10386000180024C01B000D803240018003801C40E2
:1038700027401C800740004010006000000000004E
:10388000000000000000000000001F8020404020D9
:103890000000402020401F800000000009000600BA
:1038A0001F80060009000000040004003F8004009F
:1038B0000400000000100060000000000000000094
:1038C00004000400040004000400000000000040A4
:1038D0000000000000000000002001C006003800C9
:1038E000400000001F802040204020401F8000003A
:1038F000000010403FC000400000000018C0214000
:1039000022402440184000001080204024402440E1
:103910001B80000002000D0011003FC001400000AC
:103920003C80244024402440238000001F80244009
:1039300024403440038000003000200027C03800BD
:10394000200000001B802440244024401B800000F5
:103950001C0022C0224022401F8000000000000006
:1039600008400000000000000000000004600000AB
:1039700000000000000004000A0011002080404008
:10398000090009000900090009000000000040408A
:10399000208011000A0004001800200023402400A9
:1039A000180000001F802040274029401F400000D1
:1039B000004007C039000F0001C0004020403FC058
:1039C000244024401B8000001F80204020402040D5
:1039D0003080000020403FC0204020401F80000079
:1039E00020403FC024402E4030C0000020403FC057
:1039F00024402E00300000000F00108020402240A4
:103A00003380020020403FC0040004003FC020403B
:103A1000204020403FC02040204000000060202087
:103A200020203FC02000200020403FC024400B0049
:103A300030C0204020403FC020400040004000C037
:103A40003FC03C0003C03C003FC0000020403FC0DE
:103A50000C4023003FC020001F8020402040204019
:103A60001F80000020403FC02440240018000000B8
:103A70001F802140214020E01FA0000020403FC0C7
:103A80002440260019C0004018C024402440224091
:103A900031800000300020403FC020403000000056
:103AA00020003F80004000403F80200020003E007A
:103AB00001C0070038002000380007C03C0007C0E4
:103AC00038000000204039C0060039C02040000006
:103AD0002000384007C0384020000000304021C09E
:103AE0002640384020C00000000000007FE0402059
:103AF00040200000000070000C0003800040000027
:103B00000000402040207FE0000000000000200076
:103B10004000200000000000001000100010001005
:103B20000010001000000000400000000000000035
:103B3000000002800540054003C0004020003FC057
:103B4000044004400380000000000380044004405F
:103B50000640000000000380044024403FC00040B5
:103B600000000380054005400340000000000440C1
:103B70001FC0244024402000000002E005500550F2
:103B80000650042020403FC00440040003C0004011
:103B90000000044027C0004000000000001000109A
:103BA000041027E00000000020403FC00140070053
:103BB00004C00440204020403FC0004000400000BE
:103BC00007C0040007C0040003C00000044007C091
:103BD0000440040003C0004000000380044004408F
:103BE00003800000041007F004500440038000002C
:103BF000000003800440045007F00010044007C098
:103C0000024004000400000000000640054005409A
:103C100004C00000000004001F80044000400000B9
:103C2000040007800040044007C000400400070073
:103C300004C0018006000400060001C0070001C0A6
:103C400006000000044006C0010006C00440000059
:103C50000410071004E00180060004000000044086
:103C600005C00640044000000000000004007BE0A6
:103C700040200000000000000000FFF000000000F5
:103C8000000040207BE004000000000040008000B5
:103C90004000200020004000000000000000000064
:103CA00000000000000000000000000000001FCC29
:103CB000000C000000000000000008003000600060
:103CC0000800300060000000022003FC1E200220DB
:103CD00003FC1E200220000000000E1811043FFF0C
:103CE00010840C78000000000F0010840F3800C012
:103CF000077818840078000000780F8410C411241D
:103D00000E9800E4008400080800680070000000BD
:103D1000000000000000000000000000000007E0BC
:103D20001818200440020000000040022004181867
:103D300007E00000000000000240024001800FF098
:103D400001800240024000000080008000800FF8E7
:103D500000800080008000000001000D000E0000C7
:103D600000000000000000000000008000800080D3
:103D700000800080008000800000000C000C00002B
:103D800000000000000000000000000600180060B5
:103D90000180060018002000000007F00808100449
:103DA0001004080807F000000000080408041FFCC5
:103DB000000400040000000000000E0C1014102489
:103DC000104411840E0C000000000C1810041104A3
:103DD000110412880C700000000000E0032004248D
:103DE00008241FFC0024000000001F981084110408
:103DF0001104108810700000000007F008881104FA
:103E0000110418880070000000001C00100010FC55
:103E100013001C001000000000000E381144108434
:103E2000108411440E38000000000700088C104474
:103E30001044088807F00000000000000000030C98
:103E4000030C00000000000000000000000101065B
:103E5000000000000000000000000080014002207F
:103E60000410080810040000022002200220022092
:103E700002200220022000000000100408080410A4
:103E8000022001400080000000000E001200100C13
:103E9000106C10800F00000003E00C1813E41424D1
:103EA00017C4082807D000000004003C03C41C40CD
:103EB000074000E4001C000410041FFC110411045E
:103EC00011040E880070000003E00C1810041004A8
:103ED000100410081C10000010041FFC1004100433
:103EE0001004080807F0000010041FFC110411045E
:103EF00017C410040818000010041FFC110411005E
:103F000017C010000800000003E00C181004100493
:103F100010441C780040000010041FFC1084008036
:103F2000008010841FFC10040000100410041FFC0B
:103F30001004100400000000000300011001100133
:103F40001FFE10001000000010041FFC110403806D
:103F50001464181C1004000010041FFC100400045A
:103F600000040004000C000010041FFC1F0000FCF3
:103F70001F001FFC1004000010041FFC0C040300B1
:103F800000E010181FFC100007F0080810041004CF
:103F90001004080807F0000010041FFC10841080B3
:103FA000108010800F00000007F008181024102463
:103FB000101C080A07F2000010041FFC1104110075
:103FC00011C011300E0C000400000E1C11041084EE
:103FD000108410441C3800001800100010041FFC4E
:103FE000100410001800000010001FF81004000456
:103FF000000410041FF8100010001E0011E0001C47
:10400000007013801C0010001FC0103C00E01F0057
:1040100000E0103C1FC000001004180C163401C052
:1040200001C01634180C100410001C00130400FC0E
:1040300013041C00100000000804101C10641084FD
:1040400013041C04101800000000000000007FFE94
:104050004002400240020000000030000C000380DB
:104060000060001C0003000000004002400240020B
:104070007FFE000000000000000000002000400063
:10408000400040002000000000010001000100018C
:10409000000100010001000100004000400020007C
:1040A000000000000000000000000098012401440E
:1040B0000144014400FC000410001FFC00880104BE
:1040C00001040088007000000000007000880104F6
:1040D0000104010400880000000000700088010451
:1040E000010411081FFC0004000000F80144014411
:1040F0000144014400C800000000010401040FFC59
:104100001104110411001800000000D60129012932
:10411000012901C90106000010041FFC00840100F0
:104120000100010400FC000400000104190419FC52
:104130000004000400000000000000030001010171
:10414000190119FE0000000010041FFC00240040AB
:1041500001B4010C010400000000100410041FFC55
:104160000004000400000000010401FC010401003F
:1041700001FC0104010000FC010401FC00840100B9
:104180000100010400FC0004000000F80104010427
:104190000104010400F80000010101FF0085010491
:1041A0000104008800700000000000700088010415
:1041B0000104010501FF00010104010401FC008468
:1041C0000104010001800000000000CC0124012452
:1041D000012401240198000000000100010007F8FB
:1041E0000104010400000000010001F800040004C3
:1041F0000004010801FC0004010001800170000CB2
:10420000001001600180010001F0010C003001C0CC
:104210000030010C01F0010000000104018C007469
:104220000170018C01040000010101810171000E87
:10423000001801600180010000000184010C0134BC
:1042400001440184010C0000000000000000000097
:1042500001003EFC4002400200000000000000009F
:10426000FFFF0000000000000000400240023EFC92
:1042700001000000000000000000600080008000DD
:104280004000400020002000A8420008000000205C
:10429000480000006C010008F042000848000020BF
:1042A000B8110000880100080000000000000000B4
:1042B0000B0017003B003200FFFF000000A24A0481
:1042C00000000000000000000102030406070809C6
:1042D00000000000000000000000000000000102DB
:1042E000030401020304060708090204060800008B
:0400000508000131BD
:00000001FF
